:1000000000400020F51B0000351C0000371C0000DC
:1000100000000000000000000000000000000000E0
:10002000000000000000000000000000391C00007B
:1000300000000000000000003B1C00003D1C000010
:100040000D0A0000953900003F1C00003F1C000015
:100050003F1C000000000000310900003F1C0000B0
:100060003F1C00003F1C000021490000D10B000094
:100070003F1C00003F1C00003F1C00003F1C000014
:100080003F1C00006D0C00003F1C00003F1C0000E6
:10009000ED3C00003F1C00003F1C00003F1C000026
:1000A0003F1C00003F1C000000000000000000009A
:1000B0000000000000000000000000000000000040
:1000C00010B5064C2378002B07D1054B002B02D02E
:1000D000044800E000BF0123237010BD840000200D
:1000E00000000000884B0000044B10B5002B03D02B
:1000F0000349044800E000BF10BDC04600000000F6
:1001000088000020884B0000144B002B00D1124BBC
:100110009D46402292029A1A924600218B460F4633
:100120001148124A121A00F07BF80D4B002B00D038
:1001300098470C4B002B00D098470020002104006A
:100140000D000B4800F016F800F046F820002900DA
:1001500000F044FB00F016F800000800004000200A
:10016000000000000000000084000020E4050020E2
:10017000B1010000002310B501001A00180000F0C2
:1001800057F810BD084B10B50400002B02D0002119
:1001900000F0B8F8054B1868836A002B00D0984728
:1001A000200000F019F9C04605030000204B0000B4
:1001B00070B5074D074C641BA410002C02D104F04D
:1001C000A9FC70BD013CA300EB589847F5E7C04679
:1001D000800000208400002070B500260C4D0D4CDE
:1001E000641BA410A64209D1002604F08DFC0A4D20
:1001F0000A4C641BA410A64205D170BDB300EB5895
:1002000098470136EEE7B300EB5898470136F2E71E
:100210007C0000207C0000207C000020800000206A
:1002200003001218934200D1704719700133F9E7A7
:10023000F0B5304D85B02C6806000191170002938F
:10024000002C0AD12C4B2D4A2B601C00002A04D014
:1002500019001268883103920A6063681F2B3DDD24
:10026000274B002B03D10120404205B0F0BD8C206C
:1002700000E000BF041EF6D02A68002302600200DE
:1002800088324360286013609E421ED08420400064
:1002900000E000BF0028E6D003000022FC335A60D3
:1002A0009A60230088331860012261688A408B00BD
:1002B000C31880C3FC304168114341600299D9677B
:1002C000022E02D183681A438260636800205A1CA0
:1002D00062600233019A9B001A51C6E7002EF4D0E7
:1002E0002300883318680028DED1054B002BBAD0D4
:1002F000CCE7C0462C010020A00000200000000038
:1003000000000000F0B585B003900191304D2C68DD
:10031000002C01D105B0F0BD230088331E6863684E
:100320005F1E9B000093002F14DA2A4B002BF1D0A4
:1003300062682368002A49D1002B47D02B60002E29
:1003400002D0300000E000BF200000E000BF2B68BA
:100350001C00DDE7019B002B0BD0002E03D1009B7E
:10036000013F043BDEE7009B019AF318DB6F9342E9
:10037000F5D1009B6268E118013A4B68BA4216D188
:100380006760002BEBD062680292002E06D001223B
:100390003000BA40FC30416811420BD19847636885
:1003A000029A9342B2D12B68A342D8D0AEE7002282
:1003B0004A60E6E70099806804397158104202D11A
:1003C00003989847EBE708009847E8E72500BFE760
:1003D0002C01002000000000FEE7C0462E4B1B78D9
:1003E000012B00D070472D4B1B681B07FAD1F02260
:1003F0002B4B1B68134027D12A4B1B6813422BD071
:10040000264B1B681B07EDD1F022254B1B681340C0
:10041000402B2DD0F022224B1B681340A02B01D083
:10042000D02BDFD1F0231F4A12681A42DAD11E4ABC
:100430001368012B04D01D4B13601368012BFCD1F2
:10044000C0221B4B1A60CDE7102B01D0302BDBD123
:10045000144B1B681342D7D1164B174A1A608022DF
:10046000164B12021A600C4B1B78012BC8D0B9E74F
:100470000C4B1B681342CDD18022C1230121DB002C
:10048000D205D150044B1B78012BABD1034B1B6819
:100490001B07BFD0A6E7C046E00F00F0E40F00F056
:1004A000E80F00F0EC0F00F000EC06407593000040
:1004B00014EC064004050040DFFF07C0186C004044
:1004C000F0B5DE4657464E464546E0B56C4A83B029
:1004D0001378DBB2002B24D0A021A223C905DB00B6
:1004E000C858684B1968684B8343994233D000233E
:1004F0001370A022A223D205DB00D258624B934393
:1005000025D1624A136801331360FA2252009342E4
:1005100000D9A8E003B03CBC90469946A246AB4641
:10052000F0BDA024A2205849E4050E00C0002558C3
:10053000AE433500564E3668AE42DAD0205881437D
:100540005048016001211170524A1360D1E7002226
:100550004E4B1A60DEE74F4A136801331360052BD8
:10056000C7D14B4B012419600023402710260825D2
:100570004948CA0903708B082240DB0113434A0033
:100580003A40A44613431F344A0922401343CA0A7F
:1005900032401343CA0A2A40A04613431C3C4A0077
:1005A00022401343CA089146A24602224C461440F8
:1005B00023434C01A146934644464A4643700B0AE6
:1005C0001440DB01234364464A0E1440CA09234306
:1005D00014004A003C4023431400CA08344023431B
:1005E0001400CA092C4023431400524614408A0CBC
:1005F000234314005A4614402343544683708A0F01
:100600004B0F5201DB0113438A0D17401F430B0DA3
:100610001E401D401C4019005B463E4335431940B7
:100620002C432143C170042101F0AEF81B4C207013
:100630002378002B00D05CE701F09CF9831C19D0D3
:10064000431C04D101F01AF8012800D051E72378A7
:10065000DBB2002B00D04CE7042101A8019301F08C
:1006600093F8207045E70E4800F094FA0D4800F02A
:1006700091FA4FE700F030FF0028E3D139E7C04698
:100680003C01002044010020FFE7E8733001002016
:100690004001002038010020340100203D010020ED
:1006A0002C4B0000244B0000F0B5DE4657464E466A
:1006B000454600230124E0B520271026082544489C
:1006C000A0460370434B83B01B689A08D9092140A8
:1006D000D2013F340A43590021400A4359093940A5
:1006E0000A43D90A31400A43D90A2940A4460A4399
:1006F0003C3C590021400A43D9088946A2460221C0
:100700004C460C40224342705C011A0A3C40D20124
:1007100022435C0EA1468B46444649460C40D9090B
:1007200022430C0061460C40590022430C00D908BA
:10073000344022430C00D9092C4022430C0051467E
:100740000C40990C22430C0059460C406146224350
:1007500082709A0D0A40494654460F4017435A0F7B
:10076000D20117431A0D16401540144013005A4683
:100770003E4335432C43134023430421C37001F00F
:1007800003F8154C20702378002B06D003B03CBC36
:1007900090469946A246AB46F0BD01F0EBF8831CAB
:1007A0000CD0431C0ED02378DBB2002BEED10421F9
:1007B00001A8019300F0E8FF2070E7E700F08CFE4D
:1007C0000028E3D000F05AFF0128DFD1EBE7C04654
:1007D00034010020400100203D01002030B5002000
:1007E00083B001F059FD642001F000FD00F020FE0F
:1007F00001F026FA00F0BEF8002000F0D7F8384DDE
:10080000384A0021280000F083F9374C374A00218C
:10081000200000F07DF90121280000F0C7F9012136
:10082000200000F0C3F9A023E121314ADB05C90013
:100830005A5030495A5014315A502F495A5004399D
:100840005A502E495A500C315A502D495A500431A1
:100850005A502C495A5034395A502B495A500C315D
:100860005A502A495A502A495A502A495A502A4914
:100870005A5004395A5008315A5018395A50274999
:100880005A5004395A5026495A50C1238021254ACA
:100890009B000906D1504022234B1A6000F014FE41
:1008A00001F068F8831C15D0431C07D100F0E6FE68
:1008B000012803D040BF20BF20BFFBE71B4C23789B
:1008C000DBB2002BF6D1042101A8019300F05CFFFC
:1008D0002070EFE700F000FE0028E7D1EAE7C0460D
:1008E0002C4B0000A9060000244B0000C1040000AE
:1008F0000C000300140700003C0700000407000080
:100900001C070000340700000C070000240700004B
:100910004C07000064070000740700005C0700003B
:10092000540700000060004000E100E03D010020AD
:10093000BE2310B5094A5B00D15800290DD0002410
:100940000748D45000F01AF9064800F017F9064B92
:100950001C70064B1C60064B1C6010BD0060004004
:100960002C4B0000244B00003C01002038010020EB
:100970003001002070B50C4C8520237A002B12D159
:10098000636023602361E360AA228023FF210125A5
:10099000DB05D2009950383A00209D50FC3900F018
:1009A00083F80020257270BD4801002070B5050055
:1009B000002000F067F8124CA37A002B0BD0002D1A
:1009C00002D06B6801209847E36801330020E360A0
:1009D00000F060F870BD002D02D0236925612B6006
:1009E000E368002BF1D1074A80211360C122022065
:1009F000C905920088500121034A1160E5E7C0460D
:100A000048010020040100400800004010B51A4BC6
:100A10001A68002A14D0002280211A60C222012301
:100A2000164CC90592008B5063726368002B07D087
:100A30001A6800205B68626098476368002BF7D1F2
:100A40000F4B1A68002A15D000221A608022C22398
:100A500002219B00D205D1500123084CA3722369C7
:100A6000002B07D01A6801205B6822619847236930
:100A7000002BF7D110BDC046000100404801002006
:100A80000401004072B6024A1368013313607047D4
:100A90005C010020034A1368013B1360002B00D166
:100AA00062B670475C010020FF22032330B51400BA
:100AB000C5B22B40DB009C4089010A40E4439A40C8
:100AC000002814DB104B80089C46C0238000604443
:100AD0009B00C1580C402243C2501F23C0211D401F
:100AE0001E3BAB40084A49005350136030BD0F23F2
:100AF00006492B408C46083B9B089B006344D96900
:100B00000C402243DA61E8E700E100E000ED00E09C
:100B100070B505000C00002A27D04179144B8800DD
:100B2000C2504B00002C1BD0124E5B189B5D08205E
:100B3000002B14D10420A1782856FFF7B5FFA1237C
:100B400022882968DB00CA506A79217953009B18F2
:100B5000F2185170E1780020917001229A5570BD11
:100B60005C18054A64001419DEE70720F7E7C04661
:100B70006801002060010020344B000001220221A6
:100B800003681A60427953009B18014A99547047D0
:100B900060010020012203685A6041794B005B1814
:100BA00001495A547047C04660010020802300224A
:100BB00010B504685B00E250D1220468FF3B92004C
:100BC000A350002902D00168403A8B5010BDC046A6
:100BD000F0B5C646224B8025C1270024984600B5B3
:100BE000204E6D02BF00F3591D4210D01E4BE3187A
:100BF0009B001A68002A0AD0D2229200B550403ACF
:100C0000B55000221A604346E0B21B689847013491
:100C10006D00042CE7D1C122124B92009A58D207E2
:100C20000AD5802252009958002905D000219950F8
:100C30000B4B04201B689847C1220A4B92009A581C
:100C400092070AD5822252009958002905D0002126
:100C50009950034B05201B68984704BC9046F0BD93
:100C60006801002000B00040502C0010F0B5C646CE
:100C7000224B8025C1270024984600B5204E6D02E6
:100C8000BF00F3591D4210D01E4BE3189B001A6899
:100C9000002A0AD0D2229200B550403AB550002224
:100CA0001A604346E0B25B68984701346D00042C3B
:100CB000E7D1C122124B92009A58D2070AD580225E
:100CC00052009958002905D0002199500B4B04205F
:100CD0005B689847C1220A4B92009A5892070AD53E
:100CE000822252009958002905D000219950034BC7
:100CF00005205B68984704BC9046F0BD6801002061
:100D00000010014050440010F0B5DE4645465746FD
:100D10004E468046E0B587B000F0A4FF4346009001
:100D2000002B59D01E785D789C78DF7800F09AFF10
:100D3000002800D098E0594801F00AF9002853D162
:100D40000023019301F0FEF8FF26064031008346A0
:100D50004E2003F06BFE022302AA137013004F22F1
:100D6000013B9A55013EC7B2012E17DD03233D001A
:100D700001249A4602AB9C4653464246A146234074
:100D8000D05C3900E14403F047FE4B46013469185A
:100D9000E4B27D191970EDB2B442EBDB5B46D8B218
:100DA000012812D902AA9446012363449C460238C2
:100DB000C0B26044117853785B1ADBB2042B01D8BF
:100DC0000531517001328242F4D1019B002B58D180
:100DD000009B0020002B00D1002007B03CBC9046B7
:100DE0009946A246AB46F0BD0021002001F0E0F894
:100DF0000028A5D020043F06C01980192D024019F3
:100E000001F0BEF800289BD00121012001F0D0F8AC
:100E1000002895D00221022001F0CAF8002800D154
:100E20008EE70321032001F0C3F8002800D187E7F3
:100E30000421042001F0BCF8002800D180E705213E
:100E4000052001F0B5F8002800D179E70621062039
:100E500001F0AEF80190002800D173E707210720C8
:100E600001F0A6F801906DE700F002FF30BF00F03E
:100E7000F9FE0028FBD1094801F06AF80028B3D137
:100E80005EE7594602A801F011F80028A0D0009BA7
:100E9000002BA2D000F0D4FE9FE7C0460406080A4B
:100EA00010B500F0DFFE002800D110BD00F0E0FE1C
:100EB00030BF00F0D7FE0028FBD1F6E710B50322C3
:100EC000034903F009FE43425841C0B210BDC04679
:100ED000504B000010B50322014903F00CFE10BD79
:100EE000504B000010B501000522024803F003FE3C
:100EF00010BDC046A001002010B501000D2202481F
:100F000003F0F9FD10BDC04690010020014B1870A0
:100F10007047C0469D010020F0B54746CE4680B5DB
:100F20004C4B89B01B7806000F009046012B00D176
:100F30007CE0002B00D172E0022B6BD1E94610223D
:100F40004549484603F0D7FD0D224449484603F081
:100F5000D2FD0025424B04AC1A7822705A78627098
:100F60009A78A270DA78E2701B7965712371A571A5
:100F7000E57125726572A572E57225736573A573B7
:100F8000E57300F05DFD484600F0A4FD210020005F
:100F900000F072FD4346002B3CD02A00331D9F42D7
:100FA0006A4113003A1D96426D411D430523434596
:100FB0009B415B422B4243D033003B439B073FD1D5
:100FC0004346002198080023FD58E25801316A4049
:100FD000F250CAB204339042F6D8032342469A43F1
:100FE0001300BF18A418B618904513D03A7821788A
:100FF0004A4032705A1CD2B290450BD97A78617847
:1010000002334A40DBB27270984503D9BB78A278AC
:101010005340B37009B00CBC90469946F0BDE94608
:1010200010220D49484603F066FD92E7E94610227A
:101030000949484603F05FFD484600F093FC88E705
:101040000023FA5CE15C4A40F2540133DAB2904585
:10105000F7D8DFE79D010020404B00009001002001
:10106000A0010020802370B500240E4A5B00D450FC
:1010700001341460002910D00139CCB2A126411CE2
:10108000641800251900F6005358002BFCD0935922
:10109000037001305550A042F6D10122014B5A6035
:1010A00070BDC04600D0004070B5012382B004007E
:1010B00083F310882026094D05E001AA29002000AD
:1010C000019600F023FE200000F066FE0028F4DC0C
:1010D000002383F3108802B070BDC0467001002069
:1010E000F0B5C646802500B584B06D01002401AE80
:1010F0008B4F002829D08B4B984604E00134E4B292
:1011000009350E2C6CD009222900300003F0F3FCC5
:1011100004223900300003F0DFFC0028EED1052264
:10112000414602A803F0D8FC0028E7D17E4B1B788B
:10113000FF2B17D0002004B004BC9046F0BD013452
:10114000E4B209350E2C00D182E0092229003000DA
:1011500003F0D1FC04223900300003F0BDFC00286C
:10116000EDD1E3E7714B724901E08B420CD01A7864
:10117000013BFF2AF9D00F23100011099843F028F2
:1011800000D1BCE08C42D5D00F2319006948027809
:1011900011400F291CD011009943F02900D1B4E06F
:1011A000654E012332780F21644F09E015008D430D
:1011B000F02D00D1A6E09A5D0133BB4200D1AAE038
:1011C0000D0018B215400F2DF0D15A4B9C466044CB
:1011D0000F239A432243110000F0A6FC0120AAE746
:1011E00080235B019846002406E009239C460134D5
:1011F000E4B2E0440E2C4FD009224146300003F007
:101200007AFC042239003000454603F065FC0028D2
:10121000EBD13379FF2BE8D17379FF2BE5D1B3798B
:10122000FF2BE2D1F379FF2BDFD1337AFF2BDCD117
:1012300005223C4902A803F05EFC09223100280087
:1012400000F098FC384B1B78FF2B00D072E789E741
:1012500080235B019846002409224146300003F0B8
:101260004AFC33784546FF2B0ED17378FF2B0BD108
:10127000B378FF2B08D1F378FF2B05D10422390076
:10128000300003F038FCD8E709239C460134E4B26F
:10129000E0440E2CE0D14DE780235B01984600240A
:1012A00009224146300003F026FC33784546FF2BE7
:1012B0001DD17378FF2B1AD1B378FF2B17D1F37898
:1012C000FF2B14D13379FF2B11D17379FF2B0ED162
:1012D000B379FF2B0BD1F379FF2B08D1337AFF2B96
:1012E00005D104223900300003F005FCA0E70923F2
:1012F0009C460134E4B2E0440E2CD1D11AE71340ED
:1013000019003FE70B4B9C4660440F2124010A4023
:101310001443E1B260E7E021034821435CE7C046A3
:10132000C0010020B8010020FF130000FE130000E0
:101330007D1000007E1000007F100000810300007F
:10134000F0B5D6464F4646460A23C0B5814682B020
:1013500001208A4690460193FFF7A6FE00F088FC24
:1013600000F080FC041EFBD100F00CFF07001E20E3
:1013700000F0F4FE00F064FC2B4D2C4E5246494622
:1013800001202C70347000F07EFC002801D120E098
:1013900030BF2B78002BFBD03378002B19D00120E5
:1013A000FFF782FE07236A46137000F0C2FF00E0D9
:1013B00030BF00F0C5FF1328FAD900230122694687
:1013C00001202B70337000F05EFC002815D1022440
:1013D00000E0012400F04CFC00F044FC0028FBD1AC
:1013E000380000F0BBFE00F02BFC200002B01CBC5B
:1013F00090469946A246F0BD30BF2B78002BFBD01B
:101400003378002BE3D0012000F0C6FC0028DED0AA
:10141000202301AA41460120019300F077FC002817
:10142000D5D00024D6E7C046CC010020CD01002055
:10143000002210B51D4B84B01A701D4B1B78FF2B7A
:1014400005D01C4C2000FFF75FFC04B010BD1A4B08
:101450001B78FF2BF5D0194B194901E08B42F0D0D6
:101460001A78013BFF2AF9D00F2310001109984385
:10147000F02817D00D29E4D8CB00591880235B0140
:101480009C460922614401A803F035FB094C01A9DF
:101490000422200003F02FFB052202A9094803F0D3
:1014A0002AFBCFE713401900E4E7C046BD01002046
:1014B000FF130000C00100207E100000FE1300009A
:1014C0007D100000B801002010B5024800F00CFBB0
:1014D00010BDC0468C4B0000F0B5CE4647462023D9
:1014E00080B58BB0019300F095FE804600F000FEC1
:1014F0008146FFF7D5FCC82000F078FE052000F0FB
:10150000CBFD002000F094FC00F09AFB00236A461B
:1015100064250027554C564E137001226946002061
:101520002770377000F0AFFB002801D10DE030BF0D
:101530002378002BFBD03378002B06D0013D002010
:10154000EDB2FFF7B1FD002DE7D100F003FE8300FF
:1015500018188300C01800010138C046C046C046B4
:10156000C046C046C046C046C046C046C046C0464B
:10157000C046F1D101236A46137000230122694657
:1015800000202370337000F07EFB002801D10AE0B8
:1015900030BF2378002BFBD03378002B03D0354BA2
:1015A0001B78002B3FD100F0D5FD03008000C01850
:1015B0000301181AC0000138C046C046C046C046E4
:1015C000C046C046C046C046C046C046C046C046EB
:1015D000F1D1002400F0BEFDAF239B005843013839
:1015E000C046C046C046C046C046C046C046C046CB
:1015F000C046C046C046C046F1D1FFF751FC0020AE
:1016000000F016FC002000F0F9FB404600F0EEFD73
:10161000484600F041FD00F013FB20000BB00CBC6D
:1016200090469946F0BD002000F0B6FB0028D0DDC2
:10163000202301AA02A90020019300F067FB041EE9
:10164000C7D06B461B7A082BC3D101336B441900FA
:101650000422094803F04FFA09236B441800FFF7EE
:1016600053FB0020FFF73CFDB4E7C046CC0100204F
:10167000CD010020C4010020C0010020F0B5C64605
:1016800000B53C4C86B02578002D2AD1022301AF4D
:101690003B706B460521581DFFF7E4FC364B374E77
:1016A000062239000120357098461D7000F0EBFAD3
:1016B000002807D100230320237006B004BC904605
:1016C000F0BD30BF3378002BFBD043461B78002B96
:1016D000F0D06B46581DFFF705FC01230020237056
:1016E000EBE7032301AD2B706B46581DFFF7F2FBB0
:1016F0000020FFF70BFC6B46591D08000322FFF783
:101700000BFC280003AA0421FFF71AFE051ED1D105
:101710006B461B7B092BCDD104336B441800190099
:101720000922FFF7F9FB0D236B441800FFF7C6FBF6
:10173000002807D06B46187C012806D00228BCD1AF
:101740002570BAE720700220B7E71121052269440D
:101750000B4803F0D0F90B4E0D213000FFF782FC4F
:101760003000FFF7C9FB0120FFF7BAFC6B4625707C
:10177000187CA2E7BD010020CD010020CC01002093
:10178000B8010020A8010020F0B54546DE465746C6
:101790004E46E0B5804689B00C000D2908D90025D9
:1017A000280009B03CBC90469946A246AB46F0BD25
:1017B0006A460623137307336B4418000E1DFFF7A8
:1017C00089FB2200414604A803F095F9624BF6B26A
:1017D00099461B78002B00D09DE00220FFF796FB76
:1017E0000D23E71C6B44FFB23A0019001800FFF705
:1017F00093FB6A46310003A8FFF7A2FD002804D13D
:101800006B461B780B2B00D189E04B461D78002DD1
:10181000C5D104236A46012103A81373FFF790FD85
:101820000028BDD16B461B780A2BB9D16B46581CDA
:10183000FFF758FB6A460523137308336B441800FF
:10184000FFF748FB0D2104A8FFF70CFC04A8FFF7E5
:1018500053FB0120FFF75AFB0D236B4419001800BE
:101860001022FFF759FB3D4B11221D709A463C4B4D
:1018700003A901209B461D7000F005FA002801D144
:101880008EE730BF53461B78002BFAD05B461B789F
:10189000002B00D184E76A460623137307336B4499
:1018A0001800FFF717FB2200414604A803F023F9B4
:1018B0004B461B78002B4BD00020FFF727FB0D2356
:1018C0006B443A0019001800FFF726FB6A46310006
:1018D00003A8FFF735FD002800D061E76B461B78B1
:1018E0000B2B00D05CE76B46991D08000322FFF725
:1018F00013FB6B46981DFFF7E1FA041E00D14FE77A
:101900004B461D78002D00D04AE76B46581CFFF768
:10191000E9FA250044E70020FFF7F8FA60E76B4694
:10192000991D08000322FFF7F7FA6B46981DFFF791
:10193000C5FA8246002800D167E74B461D78002D86
:1019400000D02DE76B46581CFFF7CCFA554627E729
:101950000220FFF7DBFAB2E7BD010020CC01002036
:10196000CD01002010B50522014903F0C4F810BDD7
:10197000B8010020012330B587B05B4201AD01936F
:101980002B71154A154B02E0013B93421ED018788B
:10199000FF28F9D00F240300A343F02B14D004092F
:1019A00080235B019C46E10009196144092203A8D8
:1019B00003F0A1F80522290004A803F08DF80028FF
:1019C00007D060B207B030BD0440E9E702204042D2
:1019D000F8E701204042F5E77D100000FF1300000A
:1019E00082B06B465A60054A009103CB03C20123C3
:1019F000034A1370034A137002B07047C4010020F9
:101A0000CC010020CD01002082B06B465A60064A0E
:101A1000009103CB03C20122044B1A700022044B35
:101A20001A7002B07047C046C4010020CC010020EB
:101A3000CD0100207047C04682B002B07047C0465A
:101A4000074B084A19001360074A1031116019004A
:101A5000064A203111600649064A01208B50704722
:101A6000D801002008020020D4010020D00100206D
:101A700000E000400405000070B5134B0400186836
:101A8000884202D0102203F036F8802000230F494C
:101A900040000B5001330B6080235B0402E0013BEC
:101AA000002B0FD00A58002AF9D000230B50084B06
:101AB00001251968A14203D01022200003F01BF871
:101AC000280070BD0025FBE7D401002000E00040A5
:101AD000D001002010B5034B01001022186803F05C
:101AE0000AF810BD0802002002210D4A0D4BD1500A
:101AF0008021C9005358002BFCD0A1238021DB009A
:101B0000D050074AC9005358002BFCD00021054B88
:101B1000D15080220249D2008B58002BFCD0704754
:101B200000E001400405000010B5032304009C43BD
:101B3000C30018201840FF23834081400120226801
:101B40009A438918094B0A4AD0508020C000135884
:101B5000002BFCD021608021054AC9005358002B7E
:101B6000FCD00021014BD15010BDC046040500003F
:101B700000E00140F0B5DE4657464E464546E0B52A
:101B8000002A2CD00B1A994603239046174A80242A
:101B900094469B4615339A46154BC7008044E40093
:101BA0005A46050056469543FF223E40B2402968FA
:101BB00091430A004946095CB140012689186246F2
:101BC0009E501A59002AFCD029601A59002AFCD0CC
:101BD000624600210130995008378045E0D13CBC75
:101BE00090469946A246AB46F0BDC04604050000AB
:101BF00000E0014003210A4802680A4302600948E4
:101C000002680A4302600849084A094B9B1A03DD2F
:101C1000043BC858D050FBDCFEF7E0FBFEF774FA3B
:101C20002405004054050040944F000000000020AF
:101C300084000020FEE7FEE7FEE7FEE7FEE7FEE7A2
:101C400008B5064B1868002803D1054902220A701E
:101C500002E001F049F9012008BDC0460C02002055
:101C60004C020020014B1868407E70470C02002097
:101C700008B500F011FE002802D100F0F8FD01E0E7
:101C8000FFF7D8FE08BDF8B5051C0F1C161C072869
:101C900004D904221B4E0020327031E003220029B7
:101CA000F8D00622202EF5D800F04CFE092202289A
:101CB000F0D8281C00F04AFE0A220228EAD800F0D8
:101CC00049FE08220128E5D900F0F4FD4378041C00
:101CD0000670012003436370391C321CA01C02F003
:101CE0000AFFE8B2211C00F0F9FD051C0120002DBF
:101CF00006D1054802F0CAFA024F0F213970281C9C
:101D0000F8BDC0464C020020DD000500F8B5061CF9
:101D10000D1C171C00F01AFE002803D1154F0B25CF
:101D20003D7025E00322002D07D0301C00F0FCFDA3
:101D30003A6803789A4204D206220E4E002032708E
:101D400016E0301C00F0E6FD041E0AD00278811C6B
:101D50003A60281C02F0CFFE201C00F0B5FD0120E7
:101D600006E0054802F092FA02490F200870201C94
:101D7000F8BDC0464C0200200501050008B5072843
:101D800004D9044B04221A70002001E000F0DAFDAF
:101D900008BDC0464C02002008B5072805D9044BF1
:101DA000042201201A70404201E000F0CFFD08BD7E
:101DB0004C02002008B500F0CDFD0623181A08BD1E
:101DC00010B5041E072C03D90B4B04241C7003E030
:101DD000FFF7D4FF022801DD00200CE0201CFFF7F4
:101DE000DBFF0228F8DCFFF7E5FF0623181A0121C4
:101DF00081429241504210BD4C02002008B50A4B6E
:101E000019684A7E002A04D0084A0C21117000206B
:101E100009E0072803D9054B04201870F7E7C0B282
:101E200000F09CFD012008BD0C0200204C020020A7
:101E300008B5072804D9054B04221A70002003E0D6
:101E4000C0B200F0A5FD012008BDC0464C02002034
:101E500010B501280AD0002803D0022808D100209C
:101E600000E0012001F028F8012005E00220F9E758
:101E7000024B05221A70002010BDC0464C02002003
:101E800010B500F011FD01280AD00224002808D066
:101E9000A04201D1012404E0034802F0F7F900E078
:101EA0000024201C10BDC0467001050038B5134A3F
:101EB000031C10680C1C407E002804D0104D02202A
:101EC0002870002018E001390F2903D90C49072296
:101ED0000A7011E0002B03D1094C03232370F0E7B3
:101EE000084D191C10C5221C281C02F004FE281CD9
:101EF000211C00F0BDFD012038BDC0460C020020B1
:101F00004C020020600000200C4B10B51A680C68D1
:101F1000944201D3102C04D9094C072020700020D2
:101F20000AE0002803D1064903220A7004E00A608F
:101F3000191D02F0E0FD012010BDC0466000002028
:101F40004C020020014B18687047C046600000201A
:101F500008B5074B19684A7E002A04D0054B0220B9
:101F60001870002002E000F01DFD012008BDC046F1
:101F70000C0200204C02002008B500F023FD08BD33
:101F800008B5074B19684A7E002A04D0054B022089
:101F90001870002002E000F01BFD012008BDC046C3
:101FA0000C0200204C02002008B500F01FFD08BD07
:101FB00008B50A4B1A68537E002B04D0084B022246
:101FC0001A70002008E0072803D905480421017091
:101FD000F7E700F011FD012008BDC0460C0200200B
:101FE0004C02002010B50C1C072804D90422064B13
:101FF00000201A7006E003220029F8D000F028FD26
:102000002070012010BDC0464C02002008B5074BCF
:1020100019684A7E002A04D0054B0220187000205F
:1020200002E000F065FD012008BDC0460C02002062
:102030004C02002008B500F061FD08BD08B50E4A4D
:10204000031C1068407E002804D00C480222027055
:1020500000200FE0012B0AD0002B07D0022B01D16A
:10206000012004E0054B0E21197003E0022000F06E
:10207000DDFD012008BDC0460C0200204C020020FE
:1020800008B501F023F80021012801D8014B195CA3
:10209000081C08BD534B000008B5134B19684A7E55
:1020A000002A04D0114A0221117000201BE00628EA
:1020B0000FD802F06BFC12140406080A0C00FC2076
:1020C0000EE0F8200CE0F4200AE0F02008E0EC201C
:1020D00006E0064B0E201870E7E7042000E0002021
:1020E00000F046FD012008BD0C0200204C0200203B
:1020F00008B500F04BFDF02813D004D8042814D004
:10210000EC2806D10FE0F82807D0FC2803D0F428EB
:1021100005D001200AE0022008E0032006E00420A8
:1021200004E0052002E0062000E0002008BD08B51C
:10213000064B19684A7E002A04D0054B022018700D
:10214000002002E000F0E0FC012008BD0C020020AD
:102150004C02002008B500F0DDFC08BD08B5074BB7
:1021600019684A7E002A04D0054B0220187000200E
:1021700002E000F097FC012008BDC0460C020020E0
:102180004C02002008B500F093FC08BD08B5074BD1
:1021900019684A7E002A04D0054B022018700020DE
:1021A00002E000F0CBFC012008BDC0460C0200207C
:1021B0004C02002008B500F0C9FC08BD08B5074B6B
:1021C00019684A7E002A04D0054B022018700020AE
:1021D00002E000F0A5FC012008BDC0460C02002072
:1021E0004C02002008B500F0A3FC08BD08B5074B61
:1021F00019684A7E002A04D0054B0220187000207E
:1022000002E000F0A9FC012008BDC0460C0200203D
:102210004C02002008B500F0A5FC08BD08B50B4B2A
:1022200019684A7E002A04D0094A02211170002050
:102230000AE0002805D0012803D0054B0E201870B5
:10224000F5E700F05BFF012008BDC0460C0200204E
:102250004C02002008B500F057FF013843425841B6
:1022600008BD08B50A4B19684A7E002A04D0094AFD
:102270000221117000200AE0002805D0012803D0B7
:10228000044B0E201870F5E700F050FF012008BD48
:102290000C0200204C020020F8B51E4D00241E4EFA
:1022A000071C281C211C0C22083034706C60FDF7C0
:1022B000B7FF1A4800F048FE2860A04203D1012071
:1022C0003070002024E0164B181D1968FFF7EEFD52
:1022D000051C381CFFF7BCFD0540042000F0EEFB98
:1022E000201CFFF79BFFEFB207400120FFF7D4FE51
:1022F00007400220FFF7A2FE0740201CFFF7B1FFB6
:10230000041C01203C4000F0E7FE002CD7D0012047
:10231000F8BDC0460C0200204C02002097230000AC
:102320006000002008B500F007FF01384342584123
:1023300008BD024B0022DA607047C0460C02002044
:10234000014BD8687047C0460C020020044B0022A5
:1023500000B51A72904202D018610120187200BDB7
:102360000C020020014B18787047C0464C02002038
:10237000014B00221A7070474C020020014B586834
:102380007047C0460C020020014B00225A60704783
:102390000C0200207047F0B589B0040C031C060A3B
:1023A00084460190101C039297B2020C0D1C002071
:1023B00002910092E1B2624606AC06906060059020
:1023C000D0B21B0EF6B2052854D802F0DFFA03147F
:1023D0002943403D6A4649B2484223701388E08051
:1023E000281C6780A38000F06FFA301C0699626891
:1023F000FFF7F6FA41E022490B68587E002802D127
:10240000204801F043FF281C6D4600F05DFA67800C
:102410002F88301CA78006996268FFF7F5FA2CE038
:1024200048B205AC424223706280002B07D0002DD9
:1024300002D1154801F02AFF281C00F045FA301C93
:102440000599FFF7F9FA18E0FFF7F4FA15E0FFF73E
:10245000A1FF12E00A4DE9682B7A0131E960002BF7
:102460000BD02F69002F02D1FFF702FC05E0013FDE
:102470002F6102E0054801F009FF09B0F0BDC04638
:102480000C020020B5030500C3030500E3030500AB
:10249000024B03490F221A70486070474C0200201B
:1024A0000C02002000B5064A01231178022903D04E
:1024B0005068421E904100E0181C1840C0B200BD98
:1024C0005002002008B5FFF7EDFF044B044A002836
:1024D00001D0D06800E09068186008BD2402002098
:1024E0008802002008B5044B5A68002A01D0013A3E
:1024F0005A60FFF7E7FF08BD5002002010B5002327
:102500001A1C041C1C41012121400724E41AA1408B
:102510000A430133D2B2082BF3D1101C10BD70B5A1
:102520000024061C251C301CE040C0B2FFF7E6FF6B
:102530001823191B884008340543202CF3D1281C8C
:1025400070BD38B50D1C01F071FE084C63699D42E9
:1025500002D8074801F09AFE60690122291A05484D
:1025600002F058F90021616138BDC04650020020D8
:102570004D0609006D42000007B5A12303210F4A53
:102580008B40D15001F094FD002815D002280AD9C3
:10259000032811D1002300930193181C191C1A1C45
:1025A00001F09EFC03E00020011C01F035FD042831
:1025B00002D0034801F06AFE07BDC04600F00140AA
:1025C000E801090008B501F027FFA1230E4AD90050
:1025D000505001F06DFD012807D001F069FD02287F
:1025E00002D00A4801F052FE002001F0B9FA02F0D0
:1025F00093F9074BA221CA0098500648064AC168C1
:102600004868985008BDC046001000401E060900EA
:1026100000F00140240200201405000008B502F07B
:10262000EDF801280FD002F0CDF8074B187F0028F5
:1026300003D180210122CB055A60002001F0F6FD74
:10264000024A0020506008BD88020020500200208D
:1026500010B501F06AFD00281AD00E4B00229A81B5
:10266000DA8101F0C5FB0C4C0C49605001F0C0FB55
:10267000A62201238340D100635001F0BFFB084C28
:10268000206001F0C1FB074B6060E360FFF79AFF39
:1026900010BDC04650020020001000402C05000074
:1026A0006C0200204D27000008B502F0A7F80128B1
:1026B00022D101F0D5FD002802D0104801F0E6FD3E
:1026C0001E210F48002202F0A5F80E4B197F0029A9
:1026D00002D002F06BF80FE00B480C4B01220260B5
:1026E00059608021C8050260C046C046C046C04649
:1026F0005A68002AFCD0ECE708BDC0462C06090049
:102700006D4200008802002014050040FC000040DB
:102710001FB5FFF783FF01F0D9F80A4A002301A88B
:102720000521017043601C1C038143814370837049
:10273000C3709370537601F09DFA03480470FFF75D
:102740001BFF1FBD5002002084020020F0B53E4B4D
:102750008022D000195887B0012904D03B4C0026B4
:102760001D59B54206D13A4E2022776800263B78A3
:102770009A427641374C012561692E40281C002978
:1027800001D102F041F8284201D10120606101F03D
:102790008FFC012802D0304801F078FD2F4DEF6802
:1027A0003B7D002B02D02E4801F070FD01F08EF829
:1027B000002E47D00120011C01F02EFC042836D841
:1027C00002F0E4F803321832320001F017FBE2891C
:1027D000071CA689019201F00BFBE9686D46897D13
:1027E0000497AF8803AB00221A701E815F81587076
:1027F000997014E001F002FB071CE089A6890190A2
:1028000001F0F6FAEB686D469A7D0497AF8803AB4A
:1028100000219A7019701E815F8158700122DA7050
:10282000181C01F027FA02E00E4801F02FFD01F01C
:1028300019FE0D4E206170696060FFF743FE0020B5
:1028400001F016FE07B0F0BD001000403405000096
:102850006C02002050020020A8060900240200207B
:10286000A9060900C806090088020020704708B5BB
:10287000012282F31088074B597E002905D09878F1
:10288000002802D19A70FFF70FFF002282F3108810
:1028900008BDC04650020020024B0120597E48402E
:1028A0007047C04650020020014B18787047C04660
:1028B0005002002008B5012383F3108801F094FC36
:1028C000002181F3108808BD08B5012383F3108827
:1028D00001F08EFC002080F3108808BD08B50123AC
:1028E00083F3108801F0EAFB00280DD008488278B5
:1028F000002A04D1417E002901D0FFF7D5FE002334
:1029000083F31088012001E080F3108808BDC046E1
:102910005002002008B5012383F3108801F0F6FB74
:10292000002181F3108808BD08B501F0EAFB08BD5D
:1029300008B5012383F3108801F0D3FB002181F354
:10294000108808BD08B501F0D8FB08BD08B501F036
:10295000E7FB08BD08B501F04FFC08BD10B5012329
:10296000041C83F3108808480278002A05D0417EB1
:10297000002902D0054801F089FC201C01F0B5FBBC
:10298000002484F3108810BD50020020FB020900CF
:1029900008B5012383F3108801F0BDFB002080F30C
:1029A000108808BD08B5044B1862FFF7B8FD03494D
:1029B000034A505008BDC046880200201C05000094
:1029C00000100040014B186A7047C0468802002082
:1029D00008B5044B5862FFF7A2FDA421024ACB00C0
:1029E000D05008BD8802002000100040014B586AFA
:1029F0007047C04688020020F8B5031C081C072B4E
:102A00001AD80F4A03261E40D118F600FF24B440FE
:102A10002831E74308700B4C032B01D80A4D01E025
:102A2000A525ED0063591F406751FFF767FD675902
:102A3000B0400743675102E0044801F027FCF8BDAD
:102A4000880200200010004024050000390309001E
:102A500010B5041E072C02D9034801F017FC034BE4
:102A600018192830007810BD4103090088020020A1
:102A700038B5051C0C1E02D1074801F007FC002DDB
:102A800002D1064801F002FC054B00209D605C600D
:102A900001F0D6FC38BDC0464803090049030900CF
:102AA00024020020014B58617047C0468802002074
:102AB000014B58697047C04688020020064B074A00
:102AC000A32110B55877CB00D45801040448204006
:102AD0000843D05010BDC0468802002000100040BE
:102AE000FFFFF8FF014B587F7047C0468802002067
:102AF000014B18617047C04688020020014B1869DD
:102B00007047C04688020020014B58607047C0469D
:102B100088020020014B58687047C0468802002098
:102B200008B5024BD860FFF7CDFC08BD8802002035
:102B3000014BD8687047C0468802002008B5024B98
:102B40009860FFF7BFFC08BD88020020014B986821
:102B50007047C04688020020014B58837047C0462A
:102B600088020020014B588B7047C0468802002025
:102B7000034B0449044A3033187050507047C04624
:102B8000880200200C05000000100040014B30338B
:102B90001878704788020020184B10B53133187030
:102BA000174A184BFF249958A1439950032821D85C
:102BB000995801F0EBFE1D020A140124214399509B
:102BC0001149FF205850114906E002200143995055
:102BD0000F490D4A99500F49A722D20008E003245B
:102BE000214399500C480849A7225850A24000217F
:102BF000995002E0094801F049FB10BD880200200D
:102C000034050000001000403C05000007010000F2
:102C1000FFFF000021100100FFFFFF00C2030900B9
:102C2000014B313318787047880200201F4B00B5E4
:102C300032331870012821D0002810D0022834D156
:102C4000A2211B4ACB00D0501A491B481B4A0860DE
:102C50001B4B1C481C491A6008601C4A20E0A22338
:102C6000134AD9005050134B1348154A18601349A2
:102C70001748154B11601860164A11E0A2230C4A40
:102C8000D90050500B4B0C480C490D4A186011608C
:102C90001148124A0C4B124918601160114A02E0A7
:102CA0000E490A60104A1148026000BD88020020E7
:102CB0000010004024170040005000784E000054DF
:102CC0002817004008800C602C17004088647200B0
:102CD00003800C602264720002800C603017004098
:102CE00011646600DEC08F823E420F8234170040BE
:102CF000F8B5A122334C344B344E354DD00000276B
:102D000003210122F750315067516251E058314997
:102D10000F220140E150E558062095430543E55058
:102D2000E1582D4DC02290020D400543E550A323EC
:102D3000DD006159294A80230A40625160595904D3
:102D4000014361516059FF22904320231843605191
:102D500061592348C0220840605122485300022193
:102D6000C15001F0D5FD2049204A70507251204DCC
:102D7000032373511F4800F0E1FD1F4E1F4DF0600B
:102D8000687FFFF79BFE286AFFF70CFE686AFFF773
:102D90001FFEE81928300178381C0137FFF72CFE98
:102DA000082FF6D12F1C30373978154AA1502C1C2A
:102DB000313420783235FFF7EFFE2878FFF736FF01
:102DC000F8BDC046001000401405000000F00140AE
:102DD000FC0F0000FFFEFFFFFFFFF0FFFFFFFFFD06
:102DE000FF00FFFF00E100E01C05000004110040AF
:102DF000040500006C02002024020020880200204C
:102E00000C05000070B5274E86B0337872789A4270
:102E100045D0002B01D1FFF76BFF7078002801D15E
:102E2000FFF7AAFB2049214D00246C5000F04EFD15
:102E30001F4D2C606C602C61AC60EC603378012B12
:102E400008D101F035F9A04217D0201C211C01F057
:102E5000E3F812E0022B10D100F038FD154A2C6186
:102E6000147001F025F9032807D100940194201C67
:102E7000211C221C231C01F033F8FFF723FB707880
:102E80000024307003A80426067044600481448145
:102E900044708470C47000F0EDFE012000E000205A
:102EA00006B070BD500200201405000000F0014083
:102EB0006C0200208402002008B5012383F31088EF
:102EC00008490A78824208D04870487E002802D11A
:102ED000FFF798FF01E0FFF7E7FB002383F310887B
:102EE00008BDC0465002002038B5124B5A7E1C1C4B
:102EF000002A1DD1FFF7FCFE0F488168051C002940
:102F000002D10E4801F0C2F96B68002B02D10C48C7
:102F100001F0BCF901F098F9002802D0094801F04D
:102F2000B5F9002001F082F901226276FFF7BCFBBF
:102F300038BDC04650020020240200205E02090075
:102F40005F02090066020900F8B5071C012080F342
:102F50001088544D544B554E0024002203211C6010
:102F60005C609C60DC601C611A7529702A766A7648
:102F7000B46074606870AC706C60AC60AC81EC8103
:102F80002C616C6101F0D6FB381C00F059FE00F09A
:102F9000F5FE201C01F042F9301C01F07BF9444F92
:102FA000C2208300F958434AC0260A40FA50B000B4
:102FB0003B584149C522194039509600BB59FF2062
:102FC000402183430B43BB510120FFF775FF3B4E6C
:102FD0003B4B3C48311C3362706228310123301C6A
:102FE0000B7029300223311C03702A310320087032
:102FF000FF22311C32612B3104220A707277321C9D
:103000002C3205201070321C2D320621301C11701C
:103010002E3007220270301C2F300821321C017024
:10302000303200201070321C0120311C32321070FE
:10303000313196229A400B701E2171617260F360EB
:10304000FFF740FA0F23B360FFF73CFA01207483C7
:10305000307670760021201C6924317701F0D0F899
:1030600034606E780124A64202D0174801F00EF9B0
:1030700000262C70AE706E60AE60AE81EE812E6167
:103080006E612E766E76FFF733FEC023802180229C
:103090005800CC0053033C503B5086F31088281C4A
:1030A000F8BDC046500200206C020020240200201F
:1030B00000E100E0FFFF00FFFF00FFFF88020020AB
:1030C00004070A0D05080B0E3C020900014B3233C0
:1030D0001878704788020020054B10B5041CD8688A
:1030E000002802D1034801F0D1F803490C7510BD46
:1030F00024020020F60309006C020020014B187620
:103100007047C04688020020014B187E7047C046B9
:1031100088020020014B58767047C0468802002084
:10312000014B587E7047C04688020020014B18773B
:103130007047C04688020020014B187F7047C04688
:103140008802002008B501F05BF808BD08B50B4BFC
:10315000D868417D002906D0012000F05BFB084BB8
:103160009A8901329A810749074B084A0020585032
:1031700051681368C91AFFF7E4F908BD240200205A
:10318000500200201405000000F0014088020020D9
:10319000084B10B51A781C1C012A02D0064801F011
:1031A00075F80649064A0220002320700B61CA60A8
:1031B00010BDC04684020020920509006C02002068
:1031C0006132000010B500F081FB194819491A4C12
:1031D00000230122027023610869A623174AD9003F
:1031E000505000F065FF00280AD100F075FD01285D
:1031F0000DD900F00FFE6060002808D1104804E0EF
:1032000000F056FF032802D00E4801F03FF80220DC
:1032100000F0A6FC002000F0FDFA00F049FF0328B2
:1032200002D0094801F032F8FFF7B2FF10BDC046E6
:1032300084020020880200206C0200200010004060
:103240007B050900800509008805090008B5034BC6
:1032500005221A70FFF7B6FF08BDC04684020020A1
:10326000F0B5484A8023D800115887B0464C012950
:1032700004D0464D002356599E4205D1676800236D
:103280003978202088425B41414E032500210127E7
:10329000357021603B408B4255D08123D8001558B2
:1032A0003C4B11583C48D15002A912583B1C00918C
:1032B0000194381C291C00F013FE032841D801F0AA
:1032C00065FB1E02204E0298002802D0334800F011
:1032D000DDFF281C00F024FF002802D1304800F058
:1032E000D5FF304903A8CF680223B97D00270370BA
:1032F00047603A1C07814781457081701DE02A486C
:103300002BE0029A002A02D1284800F0BFFF281CB7
:1033100000F006FF002802D1254800F0B7FF214F3A
:1033200003A8FB68029F997D022200230270476078
:1033300003814381457081700122C27000F09AFCC4
:103340000DE01C4809E000930193181C191C1A1C7D
:1033500000F0C6FD042802D0174800F097FF25684A
:10336000002D06D100F0B2FA65752561FFF72AFF3E
:1033700005E012480122627520610424347007B010
:10338000F0BDC046001000406C0200203405000073
:10339000840200202C0500000C040000B805090080
:1033A000B905090024020020BD050900C005090077
:1033B000C1050900C8050900CF0509004D3200000C
:1033C00070B50C4DA124E4002E5901F025F8864279
:1033D0000AD001F021F82851FFF7F4FE0649002039
:1033E0004968FFF7AEF870BD044B18780028F3D099
:1033F000F4E7C0460010004088020020840200204C
:10340000F0B5864C0125636989B0281C002B01D1D9
:1034100001F0FAF90126284000D0D3E02178B1422A
:1034200002D100F04BFA10E0022908D000F042FF70
:10343000FFF758F8A678002E00D0A9E00EE0784AF1
:103440001378033BDDB2AE4240410028EED0754E0A
:1034500075487768012279086161CBE0FFF7D2FCFB
:10346000704D071E00D08EE020780190061E012EC0
:1034700006D0002863D0022865D1FFF7A1FF65E0E0
:1034800000F024FA00F014FE00281DD100F024FC06
:10349000012851D9FFF706F8071E0CD000F0FAFFFB
:1034A000002849D1287E00280BD100F0DBFF2669D7
:1034B000B04241D105E0206900F0C2FF381C00F0A5
:1034C000D7FFFFF7C5F837E0698B002920D0A28924
:1034D0008A421DD3311C381C00F09EFD00F08EFC8A
:1034E0000290A2890392E68900F082FC69460A797B
:1034F000029905AB1A7006910C226946515A587010
:10350000181C19815E819F70DF7000F0B3FB13E01F
:1035100001F07AF9002802D0444800F0B7FEA12358
:103520004348DF00C65900F077FF864202D0E189A8
:103530000131E181FFF746F80120296800E0696860
:10354000FEF7FFFF02E03B4800F0A0FE6D7E012D7C
:1035500023D1FEF7A7FF00281FD12478012C07D024
:10356000002C0DD0022C18D0334800F08FFE14E050
:1035700000F09EFD002810D100F034FC00280CD192
:10358000FFF74CF809E06968301CFEF7DAFF04E049
:10359000647E002C01D0FFF7BBF800F09DFB0128F2
:1035A0000CD905A8002103230370416001814181EA
:1035B00041708170C17000F05DFB2DE01F4800F08C
:1035C00065FE29E0FEF78EFFA778002F1DD1217838
:1035D000022912D1124B1D78033D012D04D900F0B0
:1035E00069FEFFF7EDFE17E00E4F321C78684108C8
:1035F0000D48616101F00EF90EE000F05BFE094A32
:10360000381C5168FEF79DFF06E000F053FE607E17
:10361000002801D0FFF77CF809B0F0BD500200206F
:1036200084020020880200206D4200000A05090083
:103630000010004058040900720409008C040900BD
:1036400007B50190C046C046C046C046C046C04609
:10365000C046C046C046C046C046C046C046C0463A
:10366000019B013B0193002BECD107BD70B580227B
:10367000164B910000245C501549C2250E78AD0010
:10368000144A032E07D109267442C1265C5108252D
:10369000B4001D510AE0012676425E51C0230E4D52
:1036A00002265B00EE50146103244C70002353602B
:1036B000536193604B600B75984205D007480168D1
:1036C0000A69002A00D0904770BDC0460010004033
:1036D000BC020020FC10004000E100E034020020A9
:1036E000F8B53F4B1A69012A53D19D693D4C8022A0
:1036F00096000135032104209D611870C025A15159
:1037000039496A0002278F50384F00263E61C12296
:103710007E607E61BE60364E08259100655035683A
:103720002A7D3D1C002A17D0A927F9006258314F85
:103730009A75A023D9007A58024202D12E4800F08F
:10374000A5FD00200123A12228620421A361D3004A
:10375000F950A927F90060506868002802D027486E
:1037600000F094FD2D69002D02D0254800F08EFD5B
:10377000244A536899072DD43768F968002900D086
:1037800088473668707D002828D035681E4AA550C5
:1037900024E0022A1AD1154900250D6111484D6116
:1037A00080244D6001278D60C221A6007A428C00E2
:1037B00085511D700251032058705D601D750C4BC2
:1037C0001E683769AF4209D0B84707E00F4800F0DC
:1037D0005DFD03E00E4800F059FDCDE7F8BDC046A1
:1037E000BC0200200010004000E100E0FC1000409E
:1037F0003402002000F00140AD020A00B6020A00C7
:10380000B7020A00FCE100E004050000E7020A003C
:10381000B8020A0070B51E4D061C6B7D6C78002B3B
:1038200002D11C4800F032FD287D002802D01A4841
:1038300000F02CFD012200212A756975022C0CD89C
:1038400016482301C318002E01D11E683260621E83
:10385000012A05D8997A297002E0114800F016FD76
:10386000104D2868037D002B11D0022C0FD10E4C77
:103870000E4E251C3259530702D40D4800F006FDA8
:103880000C494859002802D10B4800F0FFFC70BDDC
:10389000BC02002021010A0022010A00584B00004E
:1038A0003A010A00340200200405000000F0014043
:1038B00040010A000010004041010A00024B9868D4
:1038C0000138434258417047FC100040F8B5164B90
:1038D000164C02200121C027C222D8674D428240E7
:1038E0007B00134E8021134FA55081400025F050DE
:1038F000012265507D61104D2261A2612C789442B5
:1039000001D1062003E0023C012C00D9101C002448
:10391000FFF796FE7C61201C2C70FFF7A7FE0220AB
:103920006C753060F8BDC04604E100E00010004056
:1039300000E100E0FC100040BC02002038B50E4B56
:103940000E4C18600E490F4B0F4A0225201DC5670B
:1039500099500E48A421CA009850FFF7B7FF0C48B1
:1039600000230321037041704360036103754375B5
:103970008375256038BDC0463402002000E100E0B8
:103980001410004000F00140240500000411004024
:10399000BC02002070B55C4C2369607D0133657802
:1039A0002361002802D0594800F070FC21780329D7
:1039B00048D1574E3269002A44D0012D35D12269B1
:1039C000032A02D0534800F061FCA06902210130B3
:1039D000514A8025A06100238D4001202170535160
:1039E0004542C22088401550C02568004B4D2950E3
:1039F0004B493361096873607361B3600326667075
:103A000063602375087D98420DD0A925E8001658FB
:103A10000125A6753E4C042623629561A124414DE3
:103A2000E4002E511350CA6865E0022D08D12369C5
:103A3000012B02D03C4800F029FCFFF751FE61E069
:103A40003A485DE0032D5AD0012D3CD1216901296E
:103A500018D12F480021304B0126C22241608160DD
:103A600070429100C1265850B0001D502C4D304E70
:103A70002A68117D002902D02A4D0420A851E4684B
:103A80009C513FE002293DD1234E214A802300254D
:103A900098000221C22315615561556035504A4294
:103AA0009800C12132508B000822F2500326267064
:103AB000656025751A4C2568261C2869002800D0E9
:103AC0008047306816E0022DB7D0657819482B0181
:103AD000C1180E7B0025AE4203D00D4A15696A1E3F
:103AE00095418B7A01202370FFF7C0FD002D09D08E
:103AF0000B4C20688268002A04D0904702E00E48F0
:103B000000F0C4FB70BDC046BC02002090010A005A
:103B1000FC1000409F010A000010004000E100E09E
:103B20003402002000F00140A4010A00A9010A00AB
:103B300004050000584B0000D6010A0008B5022811
:103B400004D8054B18784342584103E0034800F07D
:103B50009DFB002008BDC046BC020020F9020A00FF
:103B6000F8B52B4C0301061C2A4F207DFF180028B6
:103B700002D0294800F08AFB301CFFF7DFFF002845
:103B800002D1264800F082FB0121C222244D0023ED
:103B9000484291006375C0226850224902205200B9
:103BA0008850214866700268116852682361A361D9
:103BB0003B68A160E2606360022E18D8387A8023E7
:103BC0009B00E850F87A194B002805D1E950EA58D3
:103BD000002A08D1164804E0EA50E958002902D129
:103BE000144800F053FB7F7AC1208300EF500E4D44
:103BF00029680A7D002A07D0022E05D10B480E4BFA
:103C000000260427A6751F5001256575F8BDC0461E
:103C1000BC020020584B0000DB000A00DD000A0057
:103C20000010004000E100E0340200200405000024
:103C300000010A0005010A0000F001407047C0467B
:103C400010B5041E02D1084800F020FB074B0022EB
:103C50001C60191DDA670833CA678020DA67044BD5
:103C600044031C6010BDC04629000B00E002002088
:103C700000E100E070B5144C051C2368002B02D154
:103C8000124800F003FB201C0830C16F092902D93B
:103C90000F4800F0FBFAE66F0C225643A3190433D9
:103CA00043CD43C3251C0835E86F0130E867E16F59
:103CB0000131E167E66F092E01D90022E267802415
:103CC000044B65035D6070BDE002002034000B0012
:103CD00035000B00FCE100E0034B0A200833D96FEC
:103CE000421AD0B27047C046E0020020F0B587B05B
:103CF000012383F31088134C124D0834E06F002821
:103D00001BD02A1DD16F0C26714303AB69180431F7
:103D1000181CE0C9E0C0E76F0026013FE767D46FD9
:103D20000134D467D56F092D00D9D66786F3108882
:103D3000044A176807CBB847DAE780F3108807B062
:103D4000F0BDC046E002002038B50A4C051CE36F08
:103D5000002B02D1084800F099FA291C0831E06FC5
:103D600000F03CFC0021884201D0E1670121081CE1
:103D700038BDC046680300206F020C0010B500F08B
:103D8000B7FB0021124A8800002384188818A36119
:103D9000A363041C80348830237003700D480C1812
:103DA000013123700829EDD1111C101C141C903115
:103DB00091305834137053609360D3601361536132
:103DC0000B7003702370D36792320123137010BD00
:103DD00068030020FC030020014B185C7047C046BC
:103DE000FC030020014B90331878704768030020D3
:103DF000014B58687047C04668030020014B986823
:103E00007047C04668030020014BD8687047C04621
:103E10006803002010B5104C2378002B02D00F4807
:103E200000F034FAE06F002802D100F08BFBE0676D
:103E3000E06F00280FD0012143784A4206210B434E
:103E4000437002700023C218FF2101339170202BB0
:103E5000F9D10323237010BD680300203B010C003F
:103E600038B5124C2378002B1ED1201C90300178DD
:103E7000002919D10825606900F028FC002805D028
:103E8000231C6069903301221A702061616901313D
:103E9000082900D10021231C616190331A78002A7F
:103EA00002D1013D002DE6D138BDC0466803002097
:103EB00038B5094D041C2B1C90331878002804D009
:103EC0002969A14201D1FFF7CBFF2A19034B002535
:103ED000803215701D5538BD68030020FC0300209A
:103EE000F0B5464D85B00393EB6F061C0C1C171CF8
:103EF000002B02D1424800F0C9F92878032802D0EB
:103F0000404800F0C3F9E96F01234A781A4202D110
:103F100092352D786B400425002E61D05007012684
:103F2000810F1E40251C231C0A0608330E353F0254
:103F30003249A8003F0A02930B5817430B980A9A7C
:103F40000025156005609F4233D0201CFFF7FCFE62
:103F50000190AE4200D0051C01232E1C1E400028FB
:103F600028D00299254A063188008750039F1D1CDE
:103F7000002F20D0244F3B5D002B1CD0201C00F0D4
:103F8000A5FB002802D1214800F080F9201C00F098
:103F90005BFB051E02D0201CFFF78AFF0A990D600B
:103FA000002D02D11A4800F071F900203855022581
:103FB00001E001950325002E0DD0201C00F06CFBC4
:103FC0000B9E3060002802D1124B336005E00E4F8B
:103FD00001223A5501E00B9C26600199002905D188
:103FE000064CE06F00F0CCFA0020E067034A0026A0
:103FF0001670FFF735FF281C05B0F0BD68030020E0
:104000005B010C005C010C00FC03002091010C0022
:1040100096010C00C0030020F8B51F4C071C237844
:104020000E1C013B012B02D91C4800F02FF904257E
:10403000002F19D02078012802D0194800F026F965
:10404000E268002A02D1174800F020F9E168002553
:104050000F78AF4208D06068FFF776FE022500288F
:1040600002D1114800F012F9002E0ED06768381CFA
:1040700000F0EAFA061E02D0381CFFF719FFA36809
:104080009E4202D0094800F001F900202070FFF79D
:10409000E7FE281CF8BDC04668030020FC000C00A9
:1040A00002010C0003010C000E010C001E010C00AB
:1040B000014B18787047C0466803002038B5041CCF
:1040C0000D1C00F013FB002801D1002008E0281C83
:1040D000211C00F083FA0028F7D0FFF7C1FE012071
:1040E00038BD08B500F0D8FA08BD10B5041CFFF7BC
:1040F000DFFE201C00F000FB10BD08B500F0E6FA62
:1041000008BD08B5083000F0C7FA08BD08B508308A
:1041100000F09AFA08BD08B5083000F0EDFA08BDC5
:1041200008B5083000F0D2FA08BD10B52A4C237843
:10413000002B02D0294800F0A9F8201C903001780B
:10414000002927D02069606000F0A6FAA06000284E
:1041500002D1234800F09AF8A26801235078034066
:1041600004D1211C92310A78002A10D16068FFF72F
:10417000D7FF02280ED8E36F002B02D100F0E2F93E
:10418000E067E16FE160002904D0012001E0E36015
:10419000022020702278002082421BD0A368834234
:1041A00002D1104800F072F820696060063081008A
:1041B0006318DA7803210132D0B2D870A3680840BE
:1041C0005A784100062082430A435A7090340023F3
:1041D0002370012010BDC04668030020C3000C00FE
:1041E000C9000C00E7000C0008B500F0ABF908BDF1
:1041F00008B500F0C5F908BD08B500F077FA08BDAC
:10420000014B92331870704768030020014B9233C2
:1042100018787047680300207047C046024B9870BA
:10422000587018707047C0460404002010B5041E72
:10423000012C02D9024800F029F8024B5C7010BD35
:104240002A000D0004040020014B18787047C04676
:1042500004040020014B98787047C04604040020F5
:10426000014B58787047C0460404002008B5054B40
:104270001A7858789A701870034B8100CA58904782
:1042800008BDC046040400207400002008B5FEF7F5
:10429000FFF808BD10B5041E02D10448FFF7F6FF71
:1042A000034B00221C605A609A6010BD2A00010076
:1042B00038020020094B00B518689A68016801327D
:1042C0009A608A4208D359684068002201319A6096
:1042D0005960814200D35A6000BDC04638020020B8
:1042E000F8B500282AD0164CA36801280ED12768FB
:1042F00001333A68A360934220D36068796800254F
:104300000130A5606060884218D316E02668C7189F
:104310003568A760381C291C00F042FB62683B1C12
:1043200080186060AB4201D35B1BFBE77168656876
:10433000A3608D4201D36D1AFBE76560F8BDC046EE
:1043400038020020024B1A6899681068401A7047BA
:104350003802002070B50D4D041C2B68586884424B
:1043600002D30B48FFF792FF6E68B4420CD002D81C
:1043700029684A68A418FFF7E5FF2D68F3432E6803
:1043800019197143081800E0002070BD38020020A0
:104390006800010070B5041C0D1C884202D30B4854
:1043A000FFF774FF0A4E33681868854202D909483E
:1043B000FFF76CFFB168601AA14206D30020A94242
:1043C00003D3326815686E1A301970BD7D00010084
:1043D000380200207E00010038B5041C101C0D1CA2
:1043E000FFF7B8FF002801D0001911E0201C291C9C
:1043F000FFF7D0FF041CFFF7A5FF031C201E984207
:1044000006D304490D686A682C68013A54430019C0
:1044100038BDC04638020020074B10B51A685968ED
:1044200050681C1C814202D30448FFF72FFF236809
:1044300061689A68505C10BD38020020B20001002B
:1044400038B5064B041C1A681D1C5068844202D300
:104450000348FFF71BFF6C6038BDC04638020020E0
:10446000B9000100014B58687047C046380200206F
:1044700038B5064B041C1A681D1C1068844202D310
:104480000348FFF703FFAC6038BDC0463802002088
:10449000C5000100014B98687047C04638020020F3
:1044A00010B50F4B1A68002393420BD20D499C00A4
:1044B0006458A04203D10C48FFF7E8FE0CE001333A
:1044C000DBB2F1E7002422226243084953189842E4
:1044D00004D00134062CF6D1002000E0012010BDEC
:1044E000080400200C040020F6000300140500203E
:1044F00010B500220F495000801800230C1801321B
:104500006370A3704354102AF4D122225A430A49FB
:104510000A485418211C9A0084502231DE2222704D
:1045200001348C42FAD10133062BEED1044C2360C6
:1045300010BDC04624040020140500200C040020F7
:104540000804002038B50A4B1C68002C0ED0621EEF
:10455000084990004458084D1A604550201CFFF748
:104560009FFF002802D10548FFF790FE201C38BDB0
:10457000080400200C040020ADDEADDE7D00030049
:1045800070B5104C051C2368052B02D90E48FFF7A7
:104590007DFE281CFFF784FF002802D10B48FFF79F
:1045A00075FE21680A488A0011580A4B061C994278
:1045B00002D00948FFF76AFE206882000130B5503A
:1045C000206070BD08040020850003008600030001
:1045D0000C040020ADDEADDE88000300F8B5051C3C
:1045E0000C1E0F2C02D91448FFF750FE281CFFF7B1
:1045F00057FF002802D11148FFF748FE1049660016
:104600003019435C0022022B13D80B185F78C019B5
:104610000C4F8000C5515D780135E8B258705F7865
:10462000022F00D95A7032198C5C0134E6B28E54D4
:104630000122101CF8BDC0468F000300900003004B
:10464000240400205404002038B5041E0F2C02D985
:104650000E48FFF71BFE0E4A65002919885C0028EA
:1046600013D05318987809180A488900085899787F
:104670000131C9B299709978022901D90021997044
:104680002C19155D013DEBB2135538BDA600030092
:10469000240400205404002010B5041E0F2C02D95D
:1046A0000748FFF7F3FD074B62001119C85C0028AB
:1046B00005D0581884780B1903499A00505810BD3A
:1046C000B7000300240400205404002010B5041E89
:1046D0000F2C02D90348FFF7D9FD630002491819CE
:1046E000405C10BDC800030024040020014B186882
:1046F0007047C0460804002038B5051E0F2D0CD9A0
:104700000948FFF7C3FD08E0084B9C4202D1084866
:10471000FFF7BCFD201CFFF733FF281CFFF794FFB9
:10472000041EF1D138BDC046D7000300ADDEADDEBA
:10473000DB000300164BA12110B50122CC000020A4
:104740005A60DA6018515A64124A1C1C9958814206
:1047500002D01148FFF79AFD0123C222584291006E
:104760000E4B60500022A2215A640420CB00E0507E
:104770000B490C4C012022602271627108700A4BB7
:104780008022C021D40081405C501C6010BDC04616
:1047900000A000404405000035000400FCA00040DB
:1047A000E00500204402002000E100E0034B044942
:1047B000012200201A6008707047C04600A0004027
:1047C000E0050020094A30B501235360084CD3604E
:1047D0008025084AC0200021ED0098401160117129
:1047E00025505171044A137030BDC04600A00040EE
:1047F00000E100E044020020E0050020014B1878B1
:104800007047C046E0050020014B18797047C0464C
:1048100044020020F7B5334F0092334C8022C2236C
:104820007E790191051C990050026050002E02D043
:104830002E48FFF72BFD002D02D12D48FFF726FD56
:104840003A68002A02D02B48FFF720FD3D60009D0A
:10485000294E012D0DD0002D03D0022D0DD1A922FE
:1048600008E00120254B00996064E55820647164DC
:1048700007E0A822D500655903E02148FFF706FDAF
:10488000002501227A71019FA821E81987B200232F
:10489000C80073642750275800976264174AA758C6
:1048A000716C1E1C994202D01648FFF7EFFC009B6A
:1048B000AB4205D3AF4201D39F420CD3124808E06C
:1048C000301CAF427041009DAF427641B04202D0F1
:1048D0000E48FFF7DBFC8022C12157028E00A75152
:1048E000F7BDC0464402002000A000407300040051
:1048F0007500040076000400FCA0004044050000A0
:10490000890004009B000400B0000400C9000400FA
:104910000048704748A000400048704740A1004050
:1049200070B58022134C144DC2235002990000260A
:1049300068506664114C2268B24202D11048FFF7F9
:10494000A5FC104B012166712068A82226606964CD
:10495000EE58D300EA580C4D1432AE4203D8C023AF
:104960001D02AA4202D80021964249412171804786
:1049700070BDC046FCA0004000A0004044020020E2
:10498000EC00040044050000FF3F000002B4714643
:1049900049084900095C49008E4402BC7047C04682
:1049A000002934D00123002210B488422CD30124E2
:1049B0002407A14204D2814202D209011B01F8E777
:1049C000E400A14204D2814202D249005B00F8E730
:1049D000884201D3401A1A434C08A04202D3001B5C
:1049E0005C0822438C08A04202D3001B9C0822438F
:1049F000CC08A04202D3001BDC082243002803D0CD
:104A00001B0901D00909E3E7101C10BC704701B570
:104A1000002000F05FF802BD0029F8D003B5FFF7D1
:104A2000C1FF0EBC4243891A1847C046002941D035
:104A300010B4041C4C40A44601230022002900D5D8
:104A40004942002800D5404288422CD30124240743
:104A5000A14204D2814202D209011B01F8E7E4001D
:104A6000A14204D2814202D249005B00F8E78842A9
:104A700001D3401A1A434C08A04202D3001B5C0821
:104A800022438C08A04202D3001B9C082243CC087E
:104A9000A04202D3001BDC082243002803D01B09DC
:104AA00001D00909E3E7101C6446002C00D5404200
:104AB00010BC704701B5002000F00CF802BDC046E4
:104AC0000029F7D003B5FFF7B3FF0EBC4243891AA4
:104AD0001847C0467047C04630B50024A24201D1F5
:104AE000002005E0035D651C0C5DA34201D0181B8E
:104AF00030BD2C00F2E7002310B59A4200D110BD62
:104B0000CC5CC4540133F8E7F8B5C046F8BC08BC27
:104B10009E467047F8B5C046F8BC08BC9E46704734
:104B200000000020001001401101040000B000400E
:104B30000B000400FF0F030000001F000302000031
:104B400008042824CF636C54FEC35C8760E43C2ACD
:104B500032536601020000000010004010110040B6
:104B600003100000010000000010004000000000E1
:104B70000B020400000000000410004000000000D0
:0C4B800007080301000000000000000016
:104B8C00FFFFFFFFFFFFFFFFFFFFFFFFFFFFFFFF29
:104B9C00FFFFFFFFFFFFFFFFFFFFFFFFFFFFFFFF19
:104BAC00FFFFFFFFFFFFFFFFFFFFFFFFFFFFFFFF09
:104BBC00FFFFFFFFFFFFFFFFFFFFFFFFFFFFFFFFF9
:084F8C007CB1FF7F0100000071
:104F9400000000000000000000000000000000000D
:104FA40000000000000000000000000000000000FD
:104FB40000000000000000000000000000000000ED
:104FC40000000000000000000000000000000000DD
:104FD40000000000000000000000000000000000CD
:104FE40000000000000000000000000000000000BD
:104FF4000500000004192A3F4D00000000000000D5
:1050040000000000013400004D310000E900000000
:04501400C1000000D7
:0400000300001BF5E9
:00000001FF
